{
  "contractName": "EnergyStore",
  "abi": [
    {
      "constant": true,
      "inputs": [
        {
          "name": "",
          "type": "uint256"
        }
      ],
      "name": "asks",
      "outputs": [
        {
          "name": "producer",
          "type": "address"
        },
        {
          "name": "day",
          "type": "uint32"
        },
        {
          "name": "price",
          "type": "uint32"
        },
        {
          "name": "energy",
          "type": "uint64"
        },
        {
          "name": "userID",
          "type": "uint32"
        },
        {
          "name": "timestamp",
          "type": "uint64"
        }
      ],
      "payable": false,
      "stateMutability": "view",
      "type": "function"
    },
    {
      "constant": true,
      "inputs": [
        {
          "name": "",
          "type": "address"
        }
      ],
      "name": "consumers",
      "outputs": [
        {
          "name": "",
          "type": "uint32"
        }
      ],
      "payable": false,
      "stateMutability": "view",
      "type": "function"
    },
    {
      "constant": true,
      "inputs": [
        {
          "name": "",
          "type": "address"
        }
      ],
      "name": "producers",
      "outputs": [
        {
          "name": "",
          "type": "bool"
        }
      ],
      "payable": false,
      "stateMutability": "view",
      "type": "function"
    },
    {
      "constant": false,
      "inputs": [
        {
          "name": "aproducer",
          "type": "address"
        }
      ],
      "name": "registerProducer",
      "outputs": [],
      "payable": false,
      "stateMutability": "nonpayable",
      "type": "function"
    },
    {
      "constant": true,
      "inputs": [
        {
          "name": "",
          "type": "uint256"
        }
      ],
      "name": "bids",
      "outputs": [
        {
          "name": "producer",
          "type": "address"
        },
        {
          "name": "day",
          "type": "uint32"
        },
        {
          "name": "price",
          "type": "uint32"
        },
        {
          "name": "energy",
          "type": "uint64"
        },
        {
          "name": "timestamp",
          "type": "uint64"
        }
      ],
      "payable": false,
      "stateMutability": "view",
      "type": "function"
    },
    {
      "constant": true,
      "inputs": [
        {
          "name": "",
          "type": "uint32"
        }
      ],
      "name": "asksIndex",
      "outputs": [
        {
          "name": "",
          "type": "uint256"
        }
      ],
      "payable": false,
      "stateMutability": "view",
      "type": "function"
    },
    {
      "constant": false,
      "inputs": [
        {
          "name": "aconsumer",
          "type": "address"
        },
        {
          "name": "auserID",
          "type": "uint32"
        }
      ],
      "name": "registerConsumer",
      "outputs": [],
      "payable": false,
      "stateMutability": "nonpayable",
      "type": "function"
    },
    {
      "constant": true,
      "inputs": [
        {
          "name": "",
          "type": "address"
        },
        {
          "name": "",
          "type": "uint32"
        }
      ],
      "name": "bidsIndex",
      "outputs": [
        {
          "name": "",
          "type": "uint256"
        }
      ],
      "payable": false,
      "stateMutability": "view",
      "type": "function"
    },
    {
      "anonymous": false,
      "inputs": [
        {
          "indexed": true,
          "name": "producer",
          "type": "address"
        },
        {
          "indexed": true,
          "name": "day",
          "type": "uint32"
        },
        {
          "indexed": true,
          "name": "price",
          "type": "uint32"
        },
        {
          "indexed": false,
          "name": "energy",
          "type": "uint64"
        }
      ],
      "name": "BidMade",
      "type": "event"
    },
    {
      "anonymous": false,
      "inputs": [
        {
          "indexed": true,
          "name": "producer",
          "type": "address"
        },
        {
          "indexed": true,
          "name": "day",
          "type": "uint32"
        },
        {
          "indexed": true,
          "name": "price",
          "type": "uint32"
        },
        {
          "indexed": false,
          "name": "energy",
          "type": "uint64"
        }
      ],
      "name": "BidRevoked",
      "type": "event"
    },
    {
      "anonymous": false,
      "inputs": [
        {
          "indexed": true,
          "name": "producer",
          "type": "address"
        },
        {
          "indexed": true,
          "name": "day",
          "type": "uint32"
        },
        {
          "indexed": false,
          "name": "price",
          "type": "uint32"
        },
        {
          "indexed": false,
          "name": "energy",
          "type": "uint64"
        },
        {
          "indexed": true,
          "name": "userID",
          "type": "uint32"
        }
      ],
      "name": "Deal",
      "type": "event"
    },
    {
      "anonymous": false,
      "inputs": [
        {
          "indexed": true,
          "name": "producer",
          "type": "address"
        },
        {
          "indexed": true,
          "name": "day",
          "type": "uint32"
        },
        {
          "indexed": false,
          "name": "price",
          "type": "uint32"
        },
        {
          "indexed": false,
          "name": "energy",
          "type": "uint64"
        },
        {
          "indexed": true,
          "name": "userID",
          "type": "uint32"
        }
      ],
      "name": "DealRevoked",
      "type": "event"
    },
    {
      "constant": false,
      "inputs": [
        {
          "name": "aday",
          "type": "uint32"
        },
        {
          "name": "aprice",
          "type": "uint32"
        },
        {
          "name": "aenergy",
          "type": "uint64"
        },
        {
          "name": "atimestamp",
          "type": "uint64"
        }
      ],
      "name": "offer_energy",
      "outputs": [],
      "payable": false,
      "stateMutability": "nonpayable",
      "type": "function"
    },
    {
      "constant": true,
      "inputs": [],
      "name": "getBidsCount",
      "outputs": [
        {
          "name": "count",
          "type": "uint256"
        }
      ],
      "payable": false,
      "stateMutability": "view",
      "type": "function"
    },
    {
      "constant": true,
      "inputs": [
        {
          "name": "producer",
          "type": "address"
        },
        {
          "name": "day",
          "type": "uint32"
        }
      ],
      "name": "getBidByProducerAndDay",
      "outputs": [
        {
          "name": "price",
          "type": "uint32"
        },
        {
          "name": "energy",
          "type": "uint64"
        }
      ],
      "payable": false,
      "stateMutability": "view",
      "type": "function"
    },
    {
      "constant": false,
      "inputs": [
        {
          "name": "aproducer",
          "type": "address"
        },
        {
          "name": "aday",
          "type": "uint32"
        },
        {
          "name": "aprice",
          "type": "uint32"
        },
        {
          "name": "aenergy",
          "type": "uint64"
        },
        {
          "name": "auserID",
          "type": "uint32"
        },
        {
          "name": "atimestamp",
          "type": "uint64"
        }
      ],
      "name": "buy_energy",
      "outputs": [],
      "payable": false,
      "stateMutability": "nonpayable",
      "type": "function"
    },
    {
      "constant": false,
      "inputs": [
        {
          "name": "aproducer",
          "type": "address"
        },
        {
          "name": "aday",
          "type": "uint32"
        },
        {
          "name": "aprice",
          "type": "uint32"
        },
        {
          "name": "aenergy",
          "type": "uint64"
        }
      ],
      "name": "buy_energy",
      "outputs": [],
      "payable": false,
      "stateMutability": "nonpayable",
      "type": "function"
    },
    {
      "constant": true,
      "inputs": [],
      "name": "getAsksCount",
      "outputs": [
        {
          "name": "count",
          "type": "uint256"
        }
      ],
      "payable": false,
      "stateMutability": "view",
      "type": "function"
    },
    {
      "constant": true,
      "inputs": [
        {
          "name": "userID",
          "type": "uint32"
        }
      ],
      "name": "getAskByUserID",
      "outputs": [
        {
          "name": "producer",
          "type": "address"
        },
        {
          "name": "day",
          "type": "uint32"
        },
        {
          "name": "price",
          "type": "uint32"
        },
        {
          "name": "energy",
          "type": "uint64"
        }
      ],
      "payable": false,
      "stateMutability": "view",
      "type": "function"
    }
  ],
  "bytecode": "0x6080604052336000806101000a81548173ffffffffffffffffffffffffffffffffffffffff021916908373ffffffffffffffffffffffffffffffffffffffff160217905550611c5c806100536000396000f3006080604052600436106100db576000357c0100000000000000000000000000000000000000000000000000000000900463ffffffff1680630b0c1493146100e05780630bf53668146101bc57806326324eff1461021f57806327c166051461027a5780633c530ace146103085780634423c5f11461034b578063520e7b0e14610414578063542900651461047f57806363505ae8146104aa5780636dd8d3bf146104d5578063a0376dfe14610570578063a77674a714610624578063bbae30c91461069b578063ccf5c5cf146106e2578063e46b1f0914610735575b600080fd5b3480156100ec57600080fd5b5061010b6004803603810190808035906020019092919050505061079c565b604051808773ffffffffffffffffffffffffffffffffffffffff1673ffffffffffffffffffffffffffffffffffffffff1681526020018663ffffffff1663ffffffff1681526020018563ffffffff1663ffffffff1681526020018467ffffffffffffffff1667ffffffffffffffff1681526020018363ffffffff1663ffffffff1681526020018267ffffffffffffffff1667ffffffffffffffff168152602001965050505050505060405180910390f35b3480156101c857600080fd5b506101fd600480360381019080803573ffffffffffffffffffffffffffffffffffffffff16906020019092919050505061085f565b604051808263ffffffff1663ffffffff16815260200191505060405180910390f35b34801561022b57600080fd5b50610260600480360381019080803573ffffffffffffffffffffffffffffffffffffffff169060200190929190505050610882565b604051808215151515815260200191505060405180910390f35b34801561028657600080fd5b506102cb600480360381019080803573ffffffffffffffffffffffffffffffffffffffff169060200190929190803563ffffffff1690602001909291905050506108a2565b604051808363ffffffff1663ffffffff1681526020018267ffffffffffffffff1667ffffffffffffffff1681526020019250505060405180910390f35b34801561031457600080fd5b50610349600480360381019080803573ffffffffffffffffffffffffffffffffffffffff169060200190929190505050610a4f565b005b34801561035757600080fd5b5061037660048036038101908080359060200190929190505050610b05565b604051808673ffffffffffffffffffffffffffffffffffffffff1673ffffffffffffffffffffffffffffffffffffffff1681526020018563ffffffff1663ffffffff1681526020018463ffffffff1663ffffffff1681526020018367ffffffffffffffff1667ffffffffffffffff1681526020018267ffffffffffffffff1667ffffffffffffffff1681526020019550505050505060405180910390f35b34801561042057600080fd5b5061047d600480360381019080803563ffffffff169060200190929190803563ffffffff169060200190929190803567ffffffffffffffff169060200190929190803567ffffffffffffffff169060200190929190505050610bb2565b005b34801561048b57600080fd5b50610494611232565b6040518082815260200191505060405180910390f35b3480156104b657600080fd5b506104bf61123f565b6040518082815260200191505060405180910390f35b3480156104e157600080fd5b5061056e600480360381019080803573ffffffffffffffffffffffffffffffffffffffff169060200190929190803563ffffffff169060200190929190803563ffffffff169060200190929190803567ffffffffffffffff169060200190929190803563ffffffff169060200190929190803567ffffffffffffffff16906020019092919050505061124c565b005b34801561057c57600080fd5b506105a1600480360381019080803563ffffffff1690602001909291905050506112bd565b604051808573ffffffffffffffffffffffffffffffffffffffff1673ffffffffffffffffffffffffffffffffffffffff1681526020018463ffffffff1663ffffffff1681526020018363ffffffff1663ffffffff1681526020018267ffffffffffffffff1667ffffffffffffffff16815260200194505050505060405180910390f35b34801561063057600080fd5b50610699600480360381019080803573ffffffffffffffffffffffffffffffffffffffff169060200190929190803563ffffffff169060200190929190803563ffffffff169060200190929190803567ffffffffffffffff169060200190929190505050611419565b005b3480156106a757600080fd5b506106cc600480360381019080803563ffffffff1690602001909291905050506114e1565b6040518082815260200191505060405180910390f35b3480156106ee57600080fd5b50610733600480360381019080803573ffffffffffffffffffffffffffffffffffffffff169060200190929190803563ffffffff1690602001909291905050506114f9565b005b34801561074157600080fd5b50610786600480360381019080803573ffffffffffffffffffffffffffffffffffffffff169060200190929190803563ffffffff1690602001909291905050506115b6565b6040518082815260200191505060405180910390f35b6004818154811015156107ab57fe5b90600052602060002090600202016000915090508060000160009054906101000a900473ffffffffffffffffffffffffffffffffffffffff16908060000160149054906101000a900463ffffffff16908060000160189054906101000a900463ffffffff16908060010160009054906101000a900467ffffffffffffffff16908060010160089054906101000a900463ffffffff169080600101600c9054906101000a900467ffffffffffffffff16905086565b60016020528060005260406000206000915054906101000a900463ffffffff1681565b60026020528060005260406000206000915054906101000a900460ff1681565b6000806000600560008673ffffffffffffffffffffffffffffffffffffffff1673ffffffffffffffffffffffffffffffffffffffff16815260200190815260200160002060008563ffffffff1663ffffffff1681526020019081526020016000205490508060038054905011151561091957600080fd5b8473ffffffffffffffffffffffffffffffffffffffff1660038281548110151561093f57fe5b906000526020600020906002020160000160009054906101000a900473ffffffffffffffffffffffffffffffffffffffff1673ffffffffffffffffffffffffffffffffffffffff1614151561099357600080fd5b8363ffffffff166003828154811015156109a957fe5b906000526020600020906002020160000160149054906101000a900463ffffffff1663ffffffff161415156109dd57600080fd5b6003818154811015156109ec57fe5b906000526020600020906002020160000160189054906101000a900463ffffffff16600382815481101515610a1d57fe5b906000526020600020906002020160010160009054906101000a900467ffffffffffffffff1692509250509250929050565b6000809054906101000a900473ffffffffffffffffffffffffffffffffffffffff1673ffffffffffffffffffffffffffffffffffffffff163373ffffffffffffffffffffffffffffffffffffffff16141515610aaa57600080fd5b6001600260008373ffffffffffffffffffffffffffffffffffffffff1673ffffffffffffffffffffffffffffffffffffffff16815260200190815260200160002060006101000a81548160ff02191690831515021790555050565b600381815481101515610b1457fe5b90600052602060002090600202016000915090508060000160009054906101000a900473ffffffffffffffffffffffffffffffffffffffff16908060000160149054906101000a900463ffffffff16908060000160189054906101000a900463ffffffff16908060010160009054906101000a900467ffffffffffffffff16908060010160089054906101000a900467ffffffffffffffff16905085565b6000600260003373ffffffffffffffffffffffffffffffffffffffff1673ffffffffffffffffffffffffffffffffffffffff16815260200190815260200160002060009054906101000a900460ff161515610c0c57600080fd5b60016103e8026103e80267ffffffffffffffff168367ffffffffffffffff1610151515610c3857600080fd5b600560003373ffffffffffffffffffffffffffffffffffffffff1673ffffffffffffffffffffffffffffffffffffffff16815260200190815260200160002060008663ffffffff1663ffffffff16815260200190815260200160002054905080600380549050118015610d1657503373ffffffffffffffffffffffffffffffffffffffff16600382815481101515610ccc57fe5b906000526020600020906002020160000160009054906101000a900473ffffffffffffffffffffffffffffffffffffffff1673ffffffffffffffffffffffffffffffffffffffff16145b8015610d5d57508463ffffffff16600382815481101515610d3357fe5b906000526020600020906002020160000160149054906101000a900463ffffffff1663ffffffff16145b15610efd57600381815481101515610d7157fe5b906000526020600020906002020160010160089054906101000a900467ffffffffffffffff1667ffffffffffffffff168267ffffffffffffffff16111515610db857600080fd5b600381815481101515610dc757fe5b906000526020600020906002020160000160189054906101000a900463ffffffff1663ffffffff16600382815481101515610dfe57fe5b906000526020600020906002020160000160149054906101000a900463ffffffff1663ffffffff16600383815481101515610e3557fe5b906000526020600020906002020160000160009054906101000a900473ffffffffffffffffffffffffffffffffffffffff1673ffffffffffffffffffffffffffffffffffffffff167f664a04e305e35425afb90c28227063c0b0b433a97155f2492f415af0bd4fea34600385815481101515610ead57fe5b906000526020600020906002020160010160009054906101000a900467ffffffffffffffff16604051808267ffffffffffffffff1667ffffffffffffffff16815260200191505060405180910390a45b600380549050905080600560003373ffffffffffffffffffffffffffffffffffffffff1673ffffffffffffffffffffffffffffffffffffffff16815260200190815260200160002060008763ffffffff1663ffffffff16815260200190815260200160002081905550600360a0604051908101604052803373ffffffffffffffffffffffffffffffffffffffff1681526020018763ffffffff1681526020018663ffffffff1681526020018567ffffffffffffffff1681526020018467ffffffffffffffff168152509080600181540180825580915050906001820390600052602060002090600202016000909192909190915060008201518160000160006101000a81548173ffffffffffffffffffffffffffffffffffffffff021916908373ffffffffffffffffffffffffffffffffffffffff16021790555060208201518160000160146101000a81548163ffffffff021916908363ffffffff16021790555060408201518160000160186101000a81548163ffffffff021916908363ffffffff16021790555060608201518160010160006101000a81548167ffffffffffffffff021916908367ffffffffffffffff16021790555060808201518160010160086101000a81548167ffffffffffffffff021916908367ffffffffffffffff1602179055505050506003818154811015156110f657fe5b906000526020600020906002020160000160189054906101000a900463ffffffff1663ffffffff1660038281548110151561112d57fe5b906000526020600020906002020160000160149054906101000a900463ffffffff1663ffffffff1660038381548110151561116457fe5b906000526020600020906002020160000160009054906101000a900473ffffffffffffffffffffffffffffffffffffffff1673ffffffffffffffffffffffffffffffffffffffff167f35c89b54d5468d95ecdd889b5dcd7245be0bee1a5dfbe384adc4e8f547f31fd76003858154811015156111dc57fe5b906000526020600020906002020160010160009054906101000a900467ffffffffffffffff16604051808267ffffffffffffffff1667ffffffffffffffff16815260200191505060405180910390a45050505050565b6000600480549050905090565b6000600380549050905090565b6000809054906101000a900473ffffffffffffffffffffffffffffffffffffffff1673ffffffffffffffffffffffffffffffffffffffff163373ffffffffffffffffffffffffffffffffffffffff161415156112a757600080fd5b6112b58686868686866115db565b505050505050565b6000806000806000600660008763ffffffff1663ffffffff1681526020019081526020016000205490508563ffffffff166004828154811015156112fd57fe5b906000526020600020906002020160010160089054906101000a900463ffffffff1663ffffffff1614151561133157600080fd5b60048181548110151561134057fe5b906000526020600020906002020160000160009054906101000a900473ffffffffffffffffffffffffffffffffffffffff1660048281548110151561138157fe5b906000526020600020906002020160000160149054906101000a900463ffffffff166004838154811015156113b257fe5b906000526020600020906002020160000160189054906101000a900463ffffffff166004848154811015156113e357fe5b906000526020600020906002020160010160009054906101000a900467ffffffffffffffff169450945094509450509193509193565b6000600160003373ffffffffffffffffffffffffffffffffffffffff1673ffffffffffffffffffffffffffffffffffffffff16815260200190815260200160002060009054906101000a900463ffffffff1663ffffffff1611151561147d57600080fd5b6114db84848484600160003373ffffffffffffffffffffffffffffffffffffffff1673ffffffffffffffffffffffffffffffffffffffff16815260200190815260200160002060009054906101000a900463ffffffff1660006115db565b50505050565b60066020528060005260406000206000915090505481565b6000809054906101000a900473ffffffffffffffffffffffffffffffffffffffff1673ffffffffffffffffffffffffffffffffffffffff163373ffffffffffffffffffffffffffffffffffffffff1614151561155457600080fd5b80600160008473ffffffffffffffffffffffffffffffffffffffff1673ffffffffffffffffffffffffffffffffffffffff16815260200190815260200160002060006101000a81548163ffffffff021916908363ffffffff1602179055505050565b6005602052816000526040600020602052806000526040600020600091509150505481565b600080600560008973ffffffffffffffffffffffffffffffffffffffff1673ffffffffffffffffffffffffffffffffffffffff16815260200190815260200160002060008863ffffffff1663ffffffff168152602001908152602001600020549150816003805490501180156116bc57508773ffffffffffffffffffffffffffffffffffffffff1660038381548110151561167257fe5b906000526020600020906002020160000160009054906101000a900473ffffffffffffffffffffffffffffffffffffffff1673ffffffffffffffffffffffffffffffffffffffff16145b801561170357508663ffffffff166003838154811015156116d957fe5b906000526020600020906002020160000160149054906101000a900463ffffffff1663ffffffff16145b15611c21578563ffffffff1660038381548110151561171e57fe5b906000526020600020906002020160000160189054906101000a900463ffffffff1663ffffffff1614151561175257600080fd5b600660008563ffffffff1663ffffffff168152602001908152602001600020549050806004805490501180156117c357508663ffffffff1660048281548110151561179957fe5b906000526020600020906002020160000160149054906101000a900463ffffffff1663ffffffff16145b156119bb5760008367ffffffffffffffff16148061182857508267ffffffffffffffff166004828154811015156117f657fe5b9060005260206000209060020201600101600c9054906101000a900467ffffffffffffffff1667ffffffffffffffff16105b151561183357600080fd5b60048181548110151561184257fe5b906000526020600020906002020160010160089054906101000a900463ffffffff1663ffffffff1660048281548110151561187957fe5b906000526020600020906002020160000160149054906101000a900463ffffffff1663ffffffff166004838154811015156118b057fe5b906000526020600020906002020160000160009054906101000a900473ffffffffffffffffffffffffffffffffffffffff1673ffffffffffffffffffffffffffffffffffffffff167e264fbe4f07de7fc7043d9442582fd638c02780e0e01b08df9e9c66cdc8e09d60048581548110151561192757fe5b906000526020600020906002020160000160189054906101000a900463ffffffff1660048681548110151561195857fe5b906000526020600020906002020160010160009054906101000a900467ffffffffffffffff16604051808363ffffffff1663ffffffff1681526020018267ffffffffffffffff1667ffffffffffffffff1681526020019250505060405180910390a45b600480549050600660008663ffffffff1663ffffffff16815260200190815260200160002081905550600460c0604051908101604052808a73ffffffffffffffffffffffffffffffffffffffff1681526020018963ffffffff1681526020018863ffffffff1681526020018767ffffffffffffffff1681526020018663ffffffff1681526020018567ffffffffffffffff168152509080600181540180825580915050906001820390600052602060002090600202016000909192909190915060008201518160000160006101000a81548173ffffffffffffffffffffffffffffffffffffffff021916908373ffffffffffffffffffffffffffffffffffffffff16021790555060208201518160000160146101000a81548163ffffffff021916908363ffffffff16021790555060408201518160000160186101000a81548163ffffffff021916908363ffffffff16021790555060608201518160010160006101000a81548167ffffffffffffffff021916908367ffffffffffffffff16021790555060808201518160010160086101000a81548163ffffffff021916908363ffffffff16021790555060a082015181600101600c6101000a81548167ffffffffffffffff021916908367ffffffffffffffff1602179055505050508363ffffffff168763ffffffff168973ffffffffffffffffffffffffffffffffffffffff167f1d809c14ce26d314cb611c6eb2d07dcbce4c1a76cfea828af40737b78dcb60708989604051808363ffffffff1663ffffffff1681526020018267ffffffffffffffff1667ffffffffffffffff1681526020019250505060405180910390a4611c26565b600080fd5b50505050505050505600a165627a7a723058203c54fde7ba2a27f0d6178e64f3c4390cb70f43371e873a18130a0b5acda302190029",
  "source": "pragma solidity ^0.4.23;\n\ncontract owned {\n    constructor() public { owner = msg.sender; }\n    address owner;\n    \n    modifier onlyOwner {\n        require(msg.sender == owner);\n        _;\n    }\n}\n\ncontract consumerRegistry is owned {\n    // map address to userID\n    mapping(address => uint32) public consumers;\n\n    modifier onlyRegisteredConsumers {\n        require(consumers[msg.sender] > 0);\n        _;\n    }\n\n    // Register address aconsumer to belong to userID\n    // auserID. Addresses can be delisted (\"unregistered\") by setting\n    // the userID auserID to zero.\n    function registerConsumer(address aconsumer, uint32 auserID) onlyOwner external {\n        consumers[aconsumer] = auserID;\n    }\n}\n\ncontract producerRegistry is owned {\n    // map address to bool \"is a registered producer\"\n    mapping(address => bool) public producers;\n\n    modifier onlyRegisteredProducers {\n        require(producers[msg.sender]);\n        _;\n    }\n    \n    function registerProducer(address aproducer) onlyOwner external {\n        producers[aproducer] = true;\n    }\n}\n\ncontract producerCapacityRegistry is owned {\n    // map address to uint64 \"capacity\"\n    mapping(address => uint64) public capacities;\n\n    uint64 constant mW = 1;\n    uint64 constant  W = 1000 * mW;\n    uint64 constant kW = 1000 * W;\n    uint64 constant MW = 1000 * kW;\n    uint64 constant GW = 1000 * MW;\n    uint64 constant TW = 1000 * GW;\n    uint64 constant maxCapacity = uint64(0xffffffffffffffff) / uint64(24); // chosen such that multiplication by 24 does not cause an overflow in uint64\n    \n    modifier onlyRegisteredProducers {\n        require(capacities[msg.sender] > 0);\n        _;\n    }\n\n    modifier onlyWithCapacityForEnergy(uint64 aenergy) {\n        require(capacities[msg.sender] * 24 >= aenergy);\n        _;\n    }\n    \n    function registerProducerCapacity(address aproducer, uint64 acapacity) onlyOwner external {\n        require(acapacity <= maxCapacity);\n        require((acapacity * 24 >= kW) || (acapacity == 0)); // minimum capacity is 1 kWh / day, unless it is zero\n        capacities[aproducer] = acapacity;\n    }\n}\n\ncontract EnergyStore is owned, consumerRegistry, producerRegistry {\n\n    event BidMade(address indexed producer, uint32 indexed day, uint32 indexed price, uint64 energy);\n    event BidRevoked(address indexed producer, uint32 indexed day, uint32 indexed price, uint64 energy);\n    event Deal(address indexed producer, uint32 indexed day, uint32 price, uint64 energy, uint32 indexed userID);\n    event DealRevoked(address indexed producer, uint32 indexed day, uint32 price, uint64 energy, uint32 indexed userID);\n    \n    uint64 constant mWh = 1;\n    uint64 constant  Wh = 1000 * mWh;\n    uint64 constant kWh = 1000 * Wh;\n    uint64 constant MWh = 1000 * kWh;\n    uint64 constant GWh = 1000 * MWh;\n    uint64 constant TWh = 1000 * GWh;\n    uint64 constant maxEnergy = 18446 * GWh;\n  \n    struct Bid {\n        // producer's public key\n        address producer;\n        \n        // day for which the offer is valid\n        uint32 day;\n        \n        // price vs market price\n        uint32 price;\n        \n        // energy to sell\n        uint64 energy;\n        \n        // timestamp for when the offer was submitted\n        uint64 timestamp;\n    }\n    \n    struct Ask {\n        address producer;\n        uint32 day;\n        uint32 price;\n        uint64 energy;\n        uint32 userID;\n        uint64 timestamp;\n    }\n\n    // bids (for energy: offering energy for sale)\n    Bid[] public bids;\n\n    // asks (for energy: demanding energy to buy)\n    Ask[] public asks;\n    \n    // map (address, day) to index into bids\n    mapping(address => mapping(uint32 => uint)) public bidsIndex;\n    \n    // map (userid) to index into asks [last take written]\n    mapping(uint32 => uint) public asksIndex;\n    \n    function offer_energy(uint32 aday, uint32 aprice, uint64 aenergy, uint64 atimestamp) onlyRegisteredProducers external {\n        // require a minimum offer of 1 kWh\n        require(aenergy >= kWh);\n        \n        uint idx = bidsIndex[msg.sender][aday];\n        \n        // idx is either 0 or such that bids[idx] has the right producer and day (or both 0 and ...)\n        if ((bids.length > idx) && (bids[idx].producer == msg.sender) && (bids[idx].day == aday)) {\n            // we will only let newer timestamps affect the stored data\n            require(atimestamp > bids[idx].timestamp);\n            \n            // NOTE: Should we sanity-check timestamps here (ensure that\n            //       they are either in the past or not in the too-distant\n            //       future compared to the last block's timestamp)?\n\n            emit BidRevoked(bids[idx].producer, bids[idx].day, bids[idx].price, bids[idx].energy);   \n        }\n        \n        // create entry with new index idx for (msg.sender, aday)\n        idx = bids.length;\n        bidsIndex[msg.sender][aday] = idx; \n        bids.push(Bid({\n            producer: msg.sender,\n            day: aday,\n            price: aprice,\n            energy: aenergy,\n            timestamp: atimestamp\n        }));\n        emit BidMade(bids[idx].producer, bids[idx].day, bids[idx].price, bids[idx].energy);\n    }\n    \n    function getBidsCount() external view returns(uint count) {\n        return bids.length;\n    }\n        \n    function getBidByProducerAndDay(address producer, uint32 day) external view returns(uint32 price, uint64 energy) {\n        uint idx = bidsIndex[producer][day];\n        require(bids.length > idx);\n        require(bids[idx].producer == producer);\n        require(bids[idx].day == day);\n        return (bids[idx].price, bids[idx].energy);\n    }\n\n    // buy_energy to be called by Lition\n    function buy_energy(address aproducer, uint32 aday, uint32 aprice, uint64 aenergy, uint32 auserID, uint64 atimestamp) onlyOwner external {\n        buy_energy_core(aproducer, aday, aprice, aenergy, auserID, atimestamp);\n    }\n    \n    // buy_energy to be called by a user\n    function buy_energy(address aproducer, uint32 aday, uint32 aprice, uint64 aenergy) onlyRegisteredConsumers external {\n        buy_energy_core(aproducer, aday, aprice, aenergy, consumers[msg.sender], 0);\n    }\n\n    function buy_energy_core(address aproducer, uint32 aday, uint32 aprice, uint64 aenergy, uint32 auserID, uint64 atimestamp) internal {\n        // find offer by producer (aproducer) for day (aday), or zero\n        uint idx = bidsIndex[aproducer][aday];\n        \n        // if the offer exists...\n        if ((bids.length > idx) && (bids[idx].producer == aproducer) && (bids[idx].day == aday)) {\n            // ...and has the right price...\n            require(bids[idx].price == aprice);\n            \n            // ...and is not overwriting a (by timestamp) later choice...\n            //\n            // NOTE: Only works if a single (same) day is written, not for\n            //       a bunch of writes (with different days)\n            //\n            // NOTE: The timestamp checking logic can be turned off by\n            //       using a timestamp of zero.\n            uint asksIdx = asksIndex[auserID];\n            if ((asks.length > asksIdx) && (asks[asksIdx].day == aday)) {\n                require((atimestamp == 0) || (asks[asksIdx].timestamp < atimestamp));\n                emit DealRevoked(asks[asksIdx].producer, asks[asksIdx].day, asks[asksIdx].price, asks[asksIdx].energy, asks[asksIdx].userID);\n            }\n            \n            // ...then record the customer's choice\n            asksIndex[auserID] = asks.length;\n            asks.push(Ask({\n                producer: aproducer,\n                day: aday,\n                price: aprice,\n                energy: aenergy,\n                userID: auserID,\n                timestamp: atimestamp\n            }));\n            emit Deal(aproducer, aday, aprice, aenergy, auserID);\n        } else {\n            // the offer does not exist\n            revert();\n        }\n    }\n\n    function getAsksCount() external view returns(uint count) {\n        return asks.length;\n    }\n        \n    function getAskByUserID(uint32 userID) external view returns(address producer, uint32 day, uint32 price, uint64 energy) {\n        uint idx = asksIndex[userID];\n        require(asks[idx].userID == userID);\n        return (asks[idx].producer, asks[idx].day, asks[idx].price, asks[idx].energy);\n    }\n}\n",
  "sourcePath": "/home/steinb/src/lition/contracts/EnergyStore.sol",
  "compiler": {
    "name": "solc",
    "version": "0.4.23+commit.124ca40d.Emscripten.clang"
  },
  "schemaVersion": "2.0.0",
  "updatedAt": "2018-05-04T15:59:26.451Z"
}